:10091F0010083F065B4F666D7D077F6F777C395EF2
:02092F007971DC
:10090100D3EF9400EE940040147D707C00ED1D70D7
:0E091100011CED4C70F7EF1F70E61E80E32214
:04088C007C007E006E
:10089000EC7031ED24FE601014601714601E240308
:1008A0007022D2A4C2A58004C2A4D2A5C2A6C2A7A7
:1008B0008012C2A4C2A5D2A6C2A78008C2A4C2A5A3
:0C08C000C2A6D2A774082FF8E6F580222B
:1008CC007D017F0112088C1209017D027C00E4FF7E
:1008DC00FE1208900F1209017D037F0212088C1F73
:1008EC001209017D047C007F047E001208907F01B8
:0508FC0012090180CB90
:03000000020800F3
:0C080000787FE4F6D8FD758117020847E8
:10080C000208CCE493A3F8E493A34003F68001F22E
:10081C0008DFF48029E493A3F85407240CC8C333ED
:10082C00C4540F4420C8834004F456800146F6DFBC
:10083C00E4800B010204081020408090091FE47E24
:10084C00019360BCA3FF543F30E509541FFEE493B1
:10085C00A360010ECF54C025E060A840B8E493A378
:10086C00FAE493A3F8E493A3C8C582C8CAC583CAA3
:10087C00F0A3C8C582C8CAC583CADFE9DEE780BE5B
:0109310000C5
:00000001FF
